{
  "_format": "hh-sol-artifact-1",
  "contractName": "ColorsCollection",
  "sourceName": "contracts/ColorsCollection.sol",
  "abi": [
    {
      "inputs": [],
      "stateMutability": "nonpayable",
      "type": "constructor"
    },
    {
      "anonymous": false,
      "inputs": [
        {
          "indexed": true,
          "internalType": "address",
          "name": "owner",
          "type": "address"
        },
        {
          "indexed": true,
          "internalType": "address",
          "name": "approved",
          "type": "address"
        },
        {
          "indexed": true,
          "internalType": "uint256",
          "name": "tokenId",
          "type": "uint256"
        }
      ],
      "name": "Approval",
      "type": "event"
    },
    {
      "anonymous": false,
      "inputs": [
        {
          "indexed": true,
          "internalType": "address",
          "name": "owner",
          "type": "address"
        },
        {
          "indexed": true,
          "internalType": "address",
          "name": "operator",
          "type": "address"
        },
        {
          "indexed": false,
          "internalType": "bool",
          "name": "approved",
          "type": "bool"
        }
      ],
      "name": "ApprovalForAll",
      "type": "event"
    },
    {
      "anonymous": false,
      "inputs": [
        {
          "indexed": false,
          "internalType": "address",
          "name": "sender",
          "type": "address"
        },
        {
          "indexed": false,
          "internalType": "uint256",
          "name": "tokenId",
          "type": "uint256"
        }
      ],
      "name": "NewColorMinted",
      "type": "event"
    },
    {
      "anonymous": false,
      "inputs": [
        {
          "indexed": true,
          "internalType": "address",
          "name": "from",
          "type": "address"
        },
        {
          "indexed": true,
          "internalType": "address",
          "name": "to",
          "type": "address"
        },
        {
          "indexed": true,
          "internalType": "uint256",
          "name": "tokenId",
          "type": "uint256"
        }
      ],
      "name": "Transfer",
      "type": "event"
    },
    {
      "inputs": [
        {
          "internalType": "address",
          "name": "to",
          "type": "address"
        },
        {
          "internalType": "uint256",
          "name": "tokenId",
          "type": "uint256"
        }
      ],
      "name": "approve",
      "outputs": [],
      "stateMutability": "nonpayable",
      "type": "function"
    },
    {
      "inputs": [
        {
          "internalType": "address",
          "name": "owner",
          "type": "address"
        }
      ],
      "name": "balanceOf",
      "outputs": [
        {
          "internalType": "uint256",
          "name": "",
          "type": "uint256"
        }
      ],
      "stateMutability": "view",
      "type": "function"
    },
    {
      "inputs": [
        {
          "internalType": "uint256",
          "name": "tokenId",
          "type": "uint256"
        }
      ],
      "name": "getApproved",
      "outputs": [
        {
          "internalType": "address",
          "name": "",
          "type": "address"
        }
      ],
      "stateMutability": "view",
      "type": "function"
    },
    {
      "inputs": [
        {
          "internalType": "address",
          "name": "owner",
          "type": "address"
        },
        {
          "internalType": "address",
          "name": "operator",
          "type": "address"
        }
      ],
      "name": "isApprovedForAll",
      "outputs": [
        {
          "internalType": "bool",
          "name": "",
          "type": "bool"
        }
      ],
      "stateMutability": "view",
      "type": "function"
    },
    {
      "inputs": [],
      "name": "makeColor",
      "outputs": [],
      "stateMutability": "nonpayable",
      "type": "function"
    },
    {
      "inputs": [],
      "name": "name",
      "outputs": [
        {
          "internalType": "string",
          "name": "",
          "type": "string"
        }
      ],
      "stateMutability": "view",
      "type": "function"
    },
    {
      "inputs": [
        {
          "internalType": "uint256",
          "name": "tokenId",
          "type": "uint256"
        }
      ],
      "name": "ownerOf",
      "outputs": [
        {
          "internalType": "address",
          "name": "",
          "type": "address"
        }
      ],
      "stateMutability": "view",
      "type": "function"
    },
    {
      "inputs": [
        {
          "internalType": "uint256",
          "name": "tokenId",
          "type": "uint256"
        }
      ],
      "name": "pickRandomHexadecimalFive",
      "outputs": [
        {
          "internalType": "string",
          "name": "",
          "type": "string"
        }
      ],
      "stateMutability": "view",
      "type": "function"
    },
    {
      "inputs": [
        {
          "internalType": "uint256",
          "name": "tokenId",
          "type": "uint256"
        }
      ],
      "name": "pickRandomHexadecimalFour",
      "outputs": [
        {
          "internalType": "string",
          "name": "",
          "type": "string"
        }
      ],
      "stateMutability": "view",
      "type": "function"
    },
    {
      "inputs": [
        {
          "internalType": "uint256",
          "name": "tokenId",
          "type": "uint256"
        }
      ],
      "name": "pickRandomHexadecimalOne",
      "outputs": [
        {
          "internalType": "string",
          "name": "",
          "type": "string"
        }
      ],
      "stateMutability": "view",
      "type": "function"
    },
    {
      "inputs": [
        {
          "internalType": "uint256",
          "name": "tokenId",
          "type": "uint256"
        }
      ],
      "name": "pickRandomHexadecimalSix",
      "outputs": [
        {
          "internalType": "string",
          "name": "",
          "type": "string"
        }
      ],
      "stateMutability": "view",
      "type": "function"
    },
    {
      "inputs": [
        {
          "internalType": "uint256",
          "name": "tokenId",
          "type": "uint256"
        }
      ],
      "name": "pickRandomHexadecimalThree",
      "outputs": [
        {
          "internalType": "string",
          "name": "",
          "type": "string"
        }
      ],
      "stateMutability": "view",
      "type": "function"
    },
    {
      "inputs": [
        {
          "internalType": "uint256",
          "name": "tokenId",
          "type": "uint256"
        }
      ],
      "name": "pickRandomHexadecimalTwo",
      "outputs": [
        {
          "internalType": "string",
          "name": "",
          "type": "string"
        }
      ],
      "stateMutability": "view",
      "type": "function"
    },
    {
      "inputs": [
        {
          "internalType": "address",
          "name": "from",
          "type": "address"
        },
        {
          "internalType": "address",
          "name": "to",
          "type": "address"
        },
        {
          "internalType": "uint256",
          "name": "tokenId",
          "type": "uint256"
        }
      ],
      "name": "safeTransferFrom",
      "outputs": [],
      "stateMutability": "nonpayable",
      "type": "function"
    },
    {
      "inputs": [
        {
          "internalType": "address",
          "name": "from",
          "type": "address"
        },
        {
          "internalType": "address",
          "name": "to",
          "type": "address"
        },
        {
          "internalType": "uint256",
          "name": "tokenId",
          "type": "uint256"
        },
        {
          "internalType": "bytes",
          "name": "data",
          "type": "bytes"
        }
      ],
      "name": "safeTransferFrom",
      "outputs": [],
      "stateMutability": "nonpayable",
      "type": "function"
    },
    {
      "inputs": [
        {
          "internalType": "address",
          "name": "operator",
          "type": "address"
        },
        {
          "internalType": "bool",
          "name": "approved",
          "type": "bool"
        }
      ],
      "name": "setApprovalForAll",
      "outputs": [],
      "stateMutability": "nonpayable",
      "type": "function"
    },
    {
      "inputs": [
        {
          "internalType": "bytes4",
          "name": "interfaceId",
          "type": "bytes4"
        }
      ],
      "name": "supportsInterface",
      "outputs": [
        {
          "internalType": "bool",
          "name": "",
          "type": "bool"
        }
      ],
      "stateMutability": "view",
      "type": "function"
    },
    {
      "inputs": [],
      "name": "symbol",
      "outputs": [
        {
          "internalType": "string",
          "name": "",
          "type": "string"
        }
      ],
      "stateMutability": "view",
      "type": "function"
    },
    {
      "inputs": [
        {
          "internalType": "uint256",
          "name": "tokenId",
          "type": "uint256"
        }
      ],
      "name": "tokenURI",
      "outputs": [
        {
          "internalType": "string",
          "name": "",
          "type": "string"
        }
      ],
      "stateMutability": "view",
      "type": "function"
    },
    {
      "inputs": [
        {
          "internalType": "address",
          "name": "from",
          "type": "address"
        },
        {
          "internalType": "address",
          "name": "to",
          "type": "address"
        },
        {
          "internalType": "uint256",
          "name": "tokenId",
          "type": "uint256"
        }
      ],
      "name": "transferFrom",
      "outputs": [],
      "stateMutability": "nonpayable",
      "type": "function"
    }
  ],
  "bytecode": "0x608060405260405180610100016040528060d68152602001620046ee60d691396008908051906020019062000036929190620005b3565b506040518061020001604052806040518060400160405280600181526020017f300000000000000000000000000000000000000000000000000000000000000081525081526020016040518060400160405280600181526020017f310000000000000000000000000000000000000000000000000000000000000081525081526020016040518060400160405280600181526020017f320000000000000000000000000000000000000000000000000000000000000081525081526020016040518060400160405280600181526020017f330000000000000000000000000000000000000000000000000000000000000081525081526020016040518060400160405280600181526020017f340000000000000000000000000000000000000000000000000000000000000081525081526020016040518060400160405280600181526020017f350000000000000000000000000000000000000000000000000000000000000081525081526020016040518060400160405280600181526020017f360000000000000000000000000000000000000000000000000000000000000081525081526020016040518060400160405280600181526020017f370000000000000000000000000000000000000000000000000000000000000081525081526020016040518060400160405280600181526020017f380000000000000000000000000000000000000000000000000000000000000081525081526020016040518060400160405280600181526020017f390000000000000000000000000000000000000000000000000000000000000081525081526020016040518060400160405280600181526020017f610000000000000000000000000000000000000000000000000000000000000081525081526020016040518060400160405280600181526020017f620000000000000000000000000000000000000000000000000000000000000081525081526020016040518060400160405280600181526020017f630000000000000000000000000000000000000000000000000000000000000081525081526020016040518060400160405280600181526020017f640000000000000000000000000000000000000000000000000000000000000081525081526020016040518060400160405280600181526020017f650000000000000000000000000000000000000000000000000000000000000081525081526020016040518060400160405280600181526020017f660000000000000000000000000000000000000000000000000000000000000081525081525060099060106200040392919062000644565b503480156200041157600080fd5b506040518060400160405280600781526020017f636f6c6f72732e000000000000000000000000000000000000000000000000008152506040518060400160405280600481526020017f434c525300000000000000000000000000000000000000000000000000000000815250816000908051906020019062000496929190620005b3565b508060019080519060200190620004af929190620005b3565b505050620004e1604051806060016040528060238152602001620046cb60239139620004e760201b620014c01760201c565b62000865565b6200058781604051602401620004fe919062000779565b6040516020818303038152906040527f41304fac000000000000000000000000000000000000000000000000000000007bffffffffffffffffffffffffffffffffffffffffffffffffffffffff19166020820180517bffffffffffffffffffffffffffffffffffffffffffffffffffffffff83818316178352505050506200058a60201b60201c565b50565b60008151905060006a636f6e736f6c652e6c6f679050602083016000808483855afa5050505050565b828054620005c190620007ef565b90600052602060002090601f016020900481019282620005e5576000855562000631565b82601f106200060057805160ff191683800117855562000631565b8280016001018555821562000631579182015b828111156200063057825182559160200191906001019062000613565b5b509050620006409190620006ab565b5090565b82805482825590600052602060002090810192821562000698579160200282015b828111156200069757825182908051906020019062000686929190620005b3565b509160200191906001019062000665565b5b509050620006a79190620006ca565b5090565b5b80821115620006c6576000816000905550600101620006ac565b5090565b5b80821115620006ee5760008181620006e49190620006f2565b50600101620006cb565b5090565b5080546200070090620007ef565b6000825580601f1062000714575062000735565b601f016020900490600052602060002090810190620007349190620006ab565b5b50565b600062000745826200079d565b620007518185620007a8565b935062000763818560208601620007b9565b6200076e8162000854565b840191505092915050565b6000602082019050818103600083015262000795818462000738565b905092915050565b600081519050919050565b600082825260208201905092915050565b60005b83811015620007d9578082015181840152602081019050620007bc565b83811115620007e9576000848401525b50505050565b600060028204905060018216806200080857607f821691505b602082108114156200081f576200081e62000825565b5b50919050565b7f4e487b7100000000000000000000000000000000000000000000000000000000600052602260045260246000fd5b6000601f19601f8301169050919050565b613e5680620008756000396000f3fe608060405234801561001057600080fd5b506004361061012b5760003560e01c8063885092c1116100ad578063c575a01711610071578063c575a01714610352578063c87b56dd14610382578063e03293fa146103b2578063e985e9c5146103e2578063fc69cddb146104125761012b565b8063885092c1146102c25780638b8dc3fb146102cc57806395d89b41146102fc578063a22cb4651461031a578063b88d4fde146103365761012b565b8063227cef98116100f4578063227cef98146101fa57806323b872dd1461022a57806342842e0e146102465780636352211e1461026257806370a08231146102925761012b565b8062eca96e1461013057806301ffc9a71461016057806306fdde0314610190578063081812fc146101ae578063095ea7b3146101de575b600080fd5b61014a60048036038101906101459190612901565b610442565b6040516101579190613103565b60405180910390f35b61017a600480360381019061017591906128af565b610560565b60405161018791906130e8565b60405180910390f35b610198610642565b6040516101a59190613103565b60405180910390f35b6101c860048036038101906101c39190612901565b6106d4565b6040516101d59190613058565b60405180910390f35b6101f860048036038101906101f39190612873565b61071a565b005b610214600480360381019061020f9190612901565b610832565b6040516102219190613103565b60405180910390f35b610244600480360381019061023f919061276d565b610950565b005b610260600480360381019061025b919061276d565b6109b0565b005b61027c60048036038101906102779190612901565b6109d0565b6040516102899190613058565b60405180910390f35b6102ac60048036038101906102a79190612708565b610a82565b6040516102b991906132e3565b60405180910390f35b6102ca610b3a565b005b6102e660048036038101906102e19190612901565b610d97565b6040516102f39190613103565b60405180910390f35b610304610eb5565b6040516103119190613103565b60405180910390f35b610334600480360381019061032f9190612837565b610f47565b005b610350600480360381019061034b91906127bc565b610f5d565b005b61036c60048036038101906103679190612901565b610fbf565b6040516103799190613103565b60405180910390f35b61039c60048036038101906103979190612901565b6110dd565b6040516103a99190613103565b60405180910390f35b6103cc60048036038101906103c79190612901565b6111f0565b6040516103d99190613103565b60405180910390f35b6103fc60048036038101906103f79190612731565b61130e565b60405161040991906130e8565b60405180910390f35b61042c60048036038101906104279190612901565b6113a2565b6040516104399190613103565b60405180910390f35b6060600061047661045284611559565b6040516020016104629190612f28565b604051602081830303815290604052611706565b9050600980549050816104899190613623565b9050600981815481106104c5577f4e487b7100000000000000000000000000000000000000000000000000000000600052603260045260246000fd5b9060005260206000200180546104da90613577565b80601f016020809104026020016040519081016040528092919081815260200182805461050690613577565b80156105535780601f1061052857610100808354040283529160200191610553565b820191906000526020600020905b81548152906001019060200180831161053657829003601f168201915b5050505050915050919050565b60007f80ac58cd000000000000000000000000000000000000000000000000000000007bffffffffffffffffffffffffffffffffffffffffffffffffffffffff1916827bffffffffffffffffffffffffffffffffffffffffffffffffffffffff1916148061062b57507f5b5e139f000000000000000000000000000000000000000000000000000000007bffffffffffffffffffffffffffffffffffffffffffffffffffffffff1916827bffffffffffffffffffffffffffffffffffffffffffffffffffffffff1916145b8061063b575061063a82611739565b5b9050919050565b60606000805461065190613577565b80601f016020809104026020016040519081016040528092919081815260200182805461067d90613577565b80156106ca5780601f1061069f576101008083540402835291602001916106ca565b820191906000526020600020905b8154815290600101906020018083116106ad57829003601f168201915b5050505050905090565b60006106df826117a3565b6004600083815260200190815260200160002060009054906101000a900473ffffffffffffffffffffffffffffffffffffffff169050919050565b6000610725826109d0565b90508073ffffffffffffffffffffffffffffffffffffffff168373ffffffffffffffffffffffffffffffffffffffff161415610796576040517f08c379a000000000000000000000000000000000000000000000000000000000815260040161078d906132a3565b60405180910390fd5b8073ffffffffffffffffffffffffffffffffffffffff166107b56117ee565b73ffffffffffffffffffffffffffffffffffffffff1614806107e457506107e3816107de6117ee565b61130e565b5b610823576040517f08c379a000000000000000000000000000000000000000000000000000000000815260040161081a90613243565b60405180910390fd5b61082d83836117f6565b505050565b6060600061086661084284611559565b6040516020016108529190612ee4565b604051602081830303815290604052611706565b9050600980549050816108799190613623565b9050600981815481106108b5577f4e487b7100000000000000000000000000000000000000000000000000000000600052603260045260246000fd5b9060005260206000200180546108ca90613577565b80601f01602080910402602001604051908101604052809291908181526020018280546108f690613577565b80156109435780601f1061091857610100808354040283529160200191610943565b820191906000526020600020905b81548152906001019060200180831161092657829003601f168201915b5050505050915050919050565b61096161095b6117ee565b826118af565b6109a0576040517f08c379a0000000000000000000000000000000000000000000000000000000008152600401610997906132c3565b60405180910390fd5b6109ab838383611944565b505050565b6109cb83838360405180602001604052806000815250610f5d565b505050565b6000806002600084815260200190815260200160002060009054906101000a900473ffffffffffffffffffffffffffffffffffffffff169050600073ffffffffffffffffffffffffffffffffffffffff168173ffffffffffffffffffffffffffffffffffffffff161415610a79576040517f08c379a0000000000000000000000000000000000000000000000000000000008152600401610a7090613283565b60405180910390fd5b80915050919050565b60008073ffffffffffffffffffffffffffffffffffffffff168273ffffffffffffffffffffffffffffffffffffffff161415610af3576040517f08c379a0000000000000000000000000000000000000000000000000000000008152600401610aea90613203565b60405180910390fd5b600360008373ffffffffffffffffffffffffffffffffffffffff1673ffffffffffffffffffffffffffffffffffffffff168152602001908152602001600020549050919050565b6000610b466007611bab565b90506000610b5382610442565b90506000610b6083610fbf565b90506000610b6d846113a2565b90506000610b7a85610d97565b90506000610b87866111f0565b90506000610b9487610832565b90506000868686868686604051602001610bb396959493929190612f8f565b60405160208183030381529060405290506000600882604051602001610bda929190612e71565b604051602081830303815290604052905060008183604051602001610c00929190612e42565b60405160208183030381529060405290506000610c4584610c2084611bb9565b604051602001610c31929190612f4a565b604051602081830303815290604052611bb9565b9050600081604051602001610c5a9190613014565b6040516020818303038152906040529050610ca96040518060400160405280601581526020017f0a2d2d2d2d2d2d2d2d2d2d2d2d2d2d2d2d2d2d2d2d00000000000000000000008152506114c0565b610cd181604051602001610cbd9190612ea0565b6040516020818303038152906040526114c0565b610d0f6040518060400160405280601581526020017f2d2d2d2d2d2d2d2d2d2d2d2d2d2d2d2d2d2d2d2d0a00000000000000000000008152506114c0565b610d19338d611d77565b610d238c82611d95565b610d2d6007611e09565b610d50604051806060016040528060258152602001613dbc602591398d33611e1f565b7f5942aee63394f6d73c4e48a5f61801f3e901aaee2b49447de84bafb0c9f28e05338d604051610d819291906130bf565b60405180910390a1505050505050505050505050565b60606000610dcb610da784611559565b604051602001610db79190612f06565b604051602081830303815290604052611706565b905060098054905081610dde9190613623565b905060098181548110610e1a577f4e487b7100000000000000000000000000000000000000000000000000000000600052603260045260246000fd5b906000526020600020018054610e2f90613577565b80601f0160208091040260200160405190810160405280929190818152602001828054610e5b90613577565b8015610ea85780601f10610e7d57610100808354040283529160200191610ea8565b820191906000526020600020905b815481529060010190602001808311610e8b57829003601f168201915b5050505050915050919050565b606060018054610ec490613577565b80601f0160208091040260200160405190810160405280929190818152602001828054610ef090613577565b8015610f3d5780601f10610f1257610100808354040283529160200191610f3d565b820191906000526020600020905b815481529060010190602001808311610f2057829003601f168201915b5050505050905090565b610f59610f526117ee565b8383611ebe565b5050565b610f6e610f686117ee565b836118af565b610fad576040517f08c379a0000000000000000000000000000000000000000000000000000000008152600401610fa4906132c3565b60405180910390fd5b610fb98484848461202b565b50505050565b60606000610ff3610fcf84611559565b604051602001610fdf9190613036565b604051602081830303815290604052611706565b9050600980549050816110069190613623565b905060098181548110611042577f4e487b7100000000000000000000000000000000000000000000000000000000600052603260045260246000fd5b90600052602060002001805461105790613577565b80601f016020809104026020016040519081016040528092919081815260200182805461108390613577565b80156110d05780601f106110a5576101008083540402835291602001916110d0565b820191906000526020600020905b8154815290600101906020018083116110b357829003601f168201915b5050505050915050919050565b60606110e8826117a3565b600060066000848152602001908152602001600020805461110890613577565b80601f016020809104026020016040519081016040528092919081815260200182805461113490613577565b80156111815780601f1061115657610100808354040283529160200191611181565b820191906000526020600020905b81548152906001019060200180831161116457829003601f168201915b505050505090506000611192612087565b90506000815114156111a85781925050506111eb565b6000825111156111dd5780826040516020016111c5929190612e1e565b604051602081830303815290604052925050506111eb565b6111e68461209e565b925050505b919050565b6060600061122461120084611559565b6040516020016112109190612ff2565b604051602081830303815290604052611706565b9050600980549050816112379190613623565b905060098181548110611273577f4e487b7100000000000000000000000000000000000000000000000000000000600052603260045260246000fd5b90600052602060002001805461128890613577565b80601f01602080910402602001604051908101604052809291908181526020018280546112b490613577565b80156113015780601f106112d657610100808354040283529160200191611301565b820191906000526020600020905b8154815290600101906020018083116112e457829003601f168201915b5050505050915050919050565b6000600560008473ffffffffffffffffffffffffffffffffffffffff1673ffffffffffffffffffffffffffffffffffffffff16815260200190815260200160002060008373ffffffffffffffffffffffffffffffffffffffff1673ffffffffffffffffffffffffffffffffffffffff16815260200190815260200160002060009054906101000a900460ff16905092915050565b606060006113d66113b284611559565b6040516020016113c29190612ec2565b604051602081830303815290604052611706565b9050600980549050816113e99190613623565b905060098181548110611425577f4e487b7100000000000000000000000000000000000000000000000000000000600052603260045260246000fd5b90600052602060002001805461143a90613577565b80601f016020809104026020016040519081016040528092919081815260200182805461146690613577565b80156114b35780601f10611488576101008083540402835291602001916114b3565b820191906000526020600020905b81548152906001019060200180831161149657829003601f168201915b5050505050915050919050565b611556816040516024016114d49190613103565b6040516020818303038152906040527f41304fac000000000000000000000000000000000000000000000000000000007bffffffffffffffffffffffffffffffffffffffffffffffffffffffff19166020820180517bffffffffffffffffffffffffffffffffffffffffffffffffffffffff8381831617835250505050612106565b50565b606060008214156115a1576040518060400160405280600181526020017f30000000000000000000000000000000000000000000000000000000000000008152509050611701565b600082905060005b600082146115d35780806115bc906135da565b915050600a826115cc9190613402565b91506115a9565b60008167ffffffffffffffff811115611615577f4e487b7100000000000000000000000000000000000000000000000000000000600052604160045260246000fd5b6040519080825280601f01601f1916602001820160405280156116475781602001600182028036833780820191505090505b5090505b600085146116fa57600182611660919061348d565b9150600a8561166f9190613623565b603061167b91906133ac565b60f81b8183815181106116b7577f4e487b7100000000000000000000000000000000000000000000000000000000600052603260045260246000fd5b60200101907effffffffffffffffffffffffffffffffffffffffffffffffffffffffffffff1916908160001a905350600a856116f39190613402565b945061164b565b8093505050505b919050565b6000816040516020016117199190612e07565b6040516020818303038152906040528051906020012060001c9050919050565b60007f01ffc9a7000000000000000000000000000000000000000000000000000000007bffffffffffffffffffffffffffffffffffffffffffffffffffffffff1916827bffffffffffffffffffffffffffffffffffffffffffffffffffffffff1916149050919050565b6117ac8161212f565b6117eb576040517f08c379a00000000000000000000000000000000000000000000000000000000081526004016117e290613283565b60405180910390fd5b50565b600033905090565b816004600083815260200190815260200160002060006101000a81548173ffffffffffffffffffffffffffffffffffffffff021916908373ffffffffffffffffffffffffffffffffffffffff160217905550808273ffffffffffffffffffffffffffffffffffffffff16611869836109d0565b73ffffffffffffffffffffffffffffffffffffffff167f8c5be1e5ebec7d5bd14f71427d1e84f3dd0314c0f7b2291e5b200ac8c7c3b92560405160405180910390a45050565b6000806118bb836109d0565b90508073ffffffffffffffffffffffffffffffffffffffff168473ffffffffffffffffffffffffffffffffffffffff1614806118fd57506118fc818561130e565b5b8061193b57508373ffffffffffffffffffffffffffffffffffffffff16611923846106d4565b73ffffffffffffffffffffffffffffffffffffffff16145b91505092915050565b8273ffffffffffffffffffffffffffffffffffffffff16611964826109d0565b73ffffffffffffffffffffffffffffffffffffffff16146119ba576040517f08c379a00000000000000000000000000000000000000000000000000000000081526004016119b190613183565b60405180910390fd5b600073ffffffffffffffffffffffffffffffffffffffff168273ffffffffffffffffffffffffffffffffffffffff161415611a2a576040517f08c379a0000000000000000000000000000000000000000000000000000000008152600401611a21906131c3565b60405180910390fd5b611a3583838361219b565b611a406000826117f6565b6001600360008573ffffffffffffffffffffffffffffffffffffffff1673ffffffffffffffffffffffffffffffffffffffff1681526020019081526020016000206000828254611a90919061348d565b925050819055506001600360008473ffffffffffffffffffffffffffffffffffffffff1673ffffffffffffffffffffffffffffffffffffffff1681526020019081526020016000206000828254611ae791906133ac565b92505081905550816002600083815260200190815260200160002060006101000a81548173ffffffffffffffffffffffffffffffffffffffff021916908373ffffffffffffffffffffffffffffffffffffffff160217905550808273ffffffffffffffffffffffffffffffffffffffff168473ffffffffffffffffffffffffffffffffffffffff167fddf252ad1be2c89b69c2b068fc378daa952ba7f163c4a11628f55a4df523b3ef60405160405180910390a4611ba68383836121a0565b505050565b600081600001549050919050565b60606000825190506000811415611be25760405180602001604052806000815250915050611d72565b60006003600283611bf391906133ac565b611bfd9190613402565b6004611c099190613433565b90506000602082611c1a91906133ac565b67ffffffffffffffff811115611c59577f4e487b7100000000000000000000000000000000000000000000000000000000600052604160045260246000fd5b6040519080825280601f01601f191660200182016040528015611c8b5781602001600182028036833780820191505090505b5090506000604051806060016040528060408152602001613de1604091399050600181016020830160005b86811015611d2f5760038101905062ffffff818a015116603f8160121c168401518060081b905060ff603f83600c1c1686015116810190508060081b905060ff603f8360061c1686015116810190508060081b905060ff603f831686015116810190508060e01b90508084526004840193505050611cb6565b506003860660018114611d495760028114611d5957611d64565b613d3d60f01b6002830352611d64565b603d60f81b60018303525b508484525050819450505050505b919050565b611d918282604051806020016040528060008152506121a5565b5050565b611d9e8261212f565b611ddd576040517f08c379a0000000000000000000000000000000000000000000000000000000008152600401611dd490613223565b60405180910390fd5b80600660008481526020019081526020016000209080519060200190611e04929190612594565b505050565b6001816000016000828254019250508190555050565b611eb9838383604051602401611e3793929190613125565b6040516020818303038152906040527fe3849f79000000000000000000000000000000000000000000000000000000007bffffffffffffffffffffffffffffffffffffffffffffffffffffffff19166020820180517bffffffffffffffffffffffffffffffffffffffffffffffffffffffff8381831617835250505050612106565b505050565b8173ffffffffffffffffffffffffffffffffffffffff168373ffffffffffffffffffffffffffffffffffffffff161415611f2d576040517f08c379a0000000000000000000000000000000000000000000000000000000008152600401611f24906131e3565b60405180910390fd5b80600560008573ffffffffffffffffffffffffffffffffffffffff1673ffffffffffffffffffffffffffffffffffffffff16815260200190815260200160002060008473ffffffffffffffffffffffffffffffffffffffff1673ffffffffffffffffffffffffffffffffffffffff16815260200190815260200160002060006101000a81548160ff0219169083151502179055508173ffffffffffffffffffffffffffffffffffffffff168373ffffffffffffffffffffffffffffffffffffffff167f17307eab39ab6107e8899845ad3d59bd9653f200f220920489ca2b5937696c318360405161201e91906130e8565b60405180910390a3505050565b612036848484611944565b61204284848484612200565b612081576040517f08c379a000000000000000000000000000000000000000000000000000000000815260040161207890613163565b60405180910390fd5b50505050565b606060405180602001604052806000815250905090565b60606120a9826117a3565b60006120b3612087565b905060008151116120d357604051806020016040528060008152506120fe565b806120dd84611559565b6040516020016120ee929190612e1e565b6040516020818303038152906040525b915050919050565b60008151905060006a636f6e736f6c652e6c6f679050602083016000808483855afa5050505050565b60008073ffffffffffffffffffffffffffffffffffffffff166002600084815260200190815260200160002060009054906101000a900473ffffffffffffffffffffffffffffffffffffffff1673ffffffffffffffffffffffffffffffffffffffff1614159050919050565b505050565b505050565b6121af8383612397565b6121bc6000848484612200565b6121fb576040517f08c379a00000000000000000000000000000000000000000000000000000000081526004016121f290613163565b60405180910390fd5b505050565b60006122218473ffffffffffffffffffffffffffffffffffffffff16612571565b1561238a578373ffffffffffffffffffffffffffffffffffffffff1663150b7a0261224a6117ee565b8786866040518563ffffffff1660e01b815260040161226c9493929190613073565b602060405180830381600087803b15801561228657600080fd5b505af19250505080156122b757506040513d601f19601f820116820180604052508101906122b491906128d8565b60015b61233a573d80600081146122e7576040519150601f19603f3d011682016040523d82523d6000602084013e6122ec565b606091505b50600081511415612332576040517f08c379a000000000000000000000000000000000000000000000000000000000815260040161232990613163565b60405180910390fd5b805181602001fd5b63150b7a0260e01b7bffffffffffffffffffffffffffffffffffffffffffffffffffffffff1916817bffffffffffffffffffffffffffffffffffffffffffffffffffffffff19161491505061238f565b600190505b949350505050565b600073ffffffffffffffffffffffffffffffffffffffff168273ffffffffffffffffffffffffffffffffffffffff161415612407576040517f08c379a00000000000000000000000000000000000000000000000000000000081526004016123fe90613263565b60405180910390fd5b6124108161212f565b15612450576040517f08c379a0000000000000000000000000000000000000000000000000000000008152600401612447906131a3565b60405180910390fd5b61245c6000838361219b565b6001600360008473ffffffffffffffffffffffffffffffffffffffff1673ffffffffffffffffffffffffffffffffffffffff16815260200190815260200160002060008282546124ac91906133ac565b92505081905550816002600083815260200190815260200160002060006101000a81548173ffffffffffffffffffffffffffffffffffffffff021916908373ffffffffffffffffffffffffffffffffffffffff160217905550808273ffffffffffffffffffffffffffffffffffffffff16600073ffffffffffffffffffffffffffffffffffffffff167fddf252ad1be2c89b69c2b068fc378daa952ba7f163c4a11628f55a4df523b3ef60405160405180910390a461256d600083836121a0565b5050565b6000808273ffffffffffffffffffffffffffffffffffffffff163b119050919050565b8280546125a090613577565b90600052602060002090601f0160209004810192826125c25760008555612609565b82601f106125db57805160ff1916838001178555612609565b82800160010185558215612609579182015b828111156126085782518255916020019190600101906125ed565b5b509050612616919061261a565b5090565b5b8082111561263357600081600090555060010161261b565b5090565b600061264a61264584613323565b6132fe565b90508281526020810184848401111561266257600080fd5b61266d848285613535565b509392505050565b60008135905061268481613d5f565b92915050565b60008135905061269981613d76565b92915050565b6000813590506126ae81613d8d565b92915050565b6000815190506126c381613d8d565b92915050565b600082601f8301126126da57600080fd5b81356126ea848260208601612637565b91505092915050565b60008135905061270281613da4565b92915050565b60006020828403121561271a57600080fd5b600061272884828501612675565b91505092915050565b6000806040838503121561274457600080fd5b600061275285828601612675565b925050602061276385828601612675565b9150509250929050565b60008060006060848603121561278257600080fd5b600061279086828701612675565b93505060206127a186828701612675565b92505060406127b2868287016126f3565b9150509250925092565b600080600080608085870312156127d257600080fd5b60006127e087828801612675565b94505060206127f187828801612675565b9350506040612802878288016126f3565b925050606085013567ffffffffffffffff81111561281f57600080fd5b61282b878288016126c9565b91505092959194509250565b6000806040838503121561284a57600080fd5b600061285885828601612675565b92505060206128698582860161268a565b9150509250929050565b6000806040838503121561288657600080fd5b600061289485828601612675565b92505060206128a5858286016126f3565b9150509250929050565b6000602082840312156128c157600080fd5b60006128cf8482850161269f565b91505092915050565b6000602082840312156128ea57600080fd5b60006128f8848285016126b4565b91505092915050565b60006020828403121561291357600080fd5b6000612921848285016126f3565b91505092915050565b612933816134c1565b82525050565b612942816134d3565b82525050565b600061295382613369565b61295d818561337f565b935061296d818560208601613544565b61297681613710565b840191505092915050565b600061298c82613374565b6129968185613390565b93506129a6818560208601613544565b6129af81613710565b840191505092915050565b60006129c582613374565b6129cf81856133a1565b93506129df818560208601613544565b80840191505092915050565b600081546129f881613577565b612a0281866133a1565b94506001821660008114612a1d5760018114612a2e57612a61565b60ff19831686528186019350612a61565b612a3785613354565b60005b83811015612a5957815481890152600182019150602081019050612a3a565b838801955050505b50505092915050565b6000612a776025836133a1565b9150612a8282613721565b602582019050919050565b6000612a9a6012836133a1565b9150612aa582613770565b601282019050919050565b6000612abd603283613390565b9150612ac882613799565b604082019050919050565b6000612ae06010836133a1565b9150612aeb826137e8565b601082019050919050565b6000612b03602583613390565b9150612b0e82613811565b604082019050919050565b6000612b26601c83613390565b9150612b3182613860565b602082019050919050565b6000612b49602483613390565b9150612b5482613889565b604082019050919050565b6000612b6c601983613390565b9150612b77826138d8565b602082019050919050565b6000612b8f600d836133a1565b9150612b9a82613901565b600d82019050919050565b6000612bb2602983613390565b9150612bbd8261392a565b604082019050919050565b6000612bd5602e83613390565b9150612be082613979565b604082019050919050565b6000612bf86011836133a1565b9150612c03826139c8565b601182019050919050565b6000612c1b6002836133a1565b9150612c26826139f1565b600282019050919050565b6000612c3e603e83613390565b9150612c4982613a1a565b604082019050919050565b6000612c61602083613390565b9150612c6c82613a69565b602082019050919050565b6000612c846062836133a1565b9150612c8f82613a92565b606282019050919050565b6000612ca76010836133a1565b9150612cb282613b2d565b601082019050919050565b6000612cca600a836133a1565b9150612cd582613b56565b600a82019050919050565b6000612ced6001836133a1565b9150612cf882613b7f565b600182019050919050565b6000612d106057836133a1565b9150612d1b82613ba8565b605782019050919050565b6000612d33601883613390565b9150612d3e82613c1d565b602082019050919050565b6000612d56602183613390565b9150612d6182613c46565b604082019050919050565b6000612d796011836133a1565b9150612d8482613c95565b601182019050919050565b6000612d9c601d836133a1565b9150612da782613cbe565b601d82019050919050565b6000612dbf602e83613390565b9150612dca82613ce7565b604082019050919050565b6000612de26010836133a1565b9150612ded82613d36565b601082019050919050565b612e018161352b565b82525050565b6000612e1382846129ba565b915081905092915050565b6000612e2a82856129ba565b9150612e3682846129ba565b91508190509392505050565b6000612e4e82856129ba565b9150612e5a82846129ba565b9150612e6582612b82565b91508190509392505050565b6000612e7d82856129eb565b9150612e8982846129ba565b9150612e9482612d03565b91508190509392505050565b6000612eab82612a6a565b9150612eb782846129ba565b915081905092915050565b6000612ecd82612a8d565b9150612ed982846129ba565b915081905092915050565b6000612eef82612ad3565b9150612efb82846129ba565b915081905092915050565b6000612f1182612beb565b9150612f1d82846129ba565b915081905092915050565b6000612f3382612c9a565b9150612f3f82846129ba565b915081905092915050565b6000612f5582612cbd565b9150612f6182856129ba565b9150612f6c82612c77565b9150612f7882846129ba565b9150612f8382612c0e565b91508190509392505050565b6000612f9a82612ce0565b9150612fa682896129ba565b9150612fb282886129ba565b9150612fbe82876129ba565b9150612fca82866129ba565b9150612fd682856129ba565b9150612fe282846129ba565b9150819050979650505050505050565b6000612ffd82612d6c565b915061300982846129ba565b915081905092915050565b600061301f82612d8f565b915061302b82846129ba565b915081905092915050565b600061304182612dd5565b915061304d82846129ba565b915081905092915050565b600060208201905061306d600083018461292a565b92915050565b6000608082019050613088600083018761292a565b613095602083018661292a565b6130a26040830185612df8565b81810360608301526130b48184612948565b905095945050505050565b60006040820190506130d4600083018561292a565b6130e16020830184612df8565b9392505050565b60006020820190506130fd6000830184612939565b92915050565b6000602082019050818103600083015261311d8184612981565b905092915050565b6000606082019050818103600083015261313f8186612981565b905061314e6020830185612df8565b61315b604083018461292a565b949350505050565b6000602082019050818103600083015261317c81612ab0565b9050919050565b6000602082019050818103600083015261319c81612af6565b9050919050565b600060208201905081810360008301526131bc81612b19565b9050919050565b600060208201905081810360008301526131dc81612b3c565b9050919050565b600060208201905081810360008301526131fc81612b5f565b9050919050565b6000602082019050818103600083015261321c81612ba5565b9050919050565b6000602082019050818103600083015261323c81612bc8565b9050919050565b6000602082019050818103600083015261325c81612c31565b9050919050565b6000602082019050818103600083015261327c81612c54565b9050919050565b6000602082019050818103600083015261329c81612d26565b9050919050565b600060208201905081810360008301526132bc81612d49565b9050919050565b600060208201905081810360008301526132dc81612db2565b9050919050565b60006020820190506132f86000830184612df8565b92915050565b6000613308613319565b905061331482826135a9565b919050565b6000604051905090565b600067ffffffffffffffff82111561333e5761333d6136e1565b5b61334782613710565b9050602081019050919050565b60008190508160005260206000209050919050565b600081519050919050565b600081519050919050565b600082825260208201905092915050565b600082825260208201905092915050565b600081905092915050565b60006133b78261352b565b91506133c28361352b565b9250827fffffffffffffffffffffffffffffffffffffffffffffffffffffffffffffffff038211156133f7576133f6613654565b5b828201905092915050565b600061340d8261352b565b91506134188361352b565b92508261342857613427613683565b5b828204905092915050565b600061343e8261352b565b91506134498361352b565b9250817fffffffffffffffffffffffffffffffffffffffffffffffffffffffffffffffff048311821515161561348257613481613654565b5b828202905092915050565b60006134988261352b565b91506134a38361352b565b9250828210156134b6576134b5613654565b5b828203905092915050565b60006134cc8261350b565b9050919050565b60008115159050919050565b60007fffffffff0000000000000000000000000000000000000000000000000000000082169050919050565b600073ffffffffffffffffffffffffffffffffffffffff82169050919050565b6000819050919050565b82818337600083830152505050565b60005b83811015613562578082015181840152602081019050613547565b83811115613571576000848401525b50505050565b6000600282049050600182168061358f57607f821691505b602082108114156135a3576135a26136b2565b5b50919050565b6135b282613710565b810181811067ffffffffffffffff821117156135d1576135d06136e1565b5b80604052505050565b60006135e58261352b565b91507fffffffffffffffffffffffffffffffffffffffffffffffffffffffffffffffff82141561361857613617613654565b5b600182019050919050565b600061362e8261352b565b91506136398361352b565b92508261364957613648613683565b5b828206905092915050565b7f4e487b7100000000000000000000000000000000000000000000000000000000600052601160045260246000fd5b7f4e487b7100000000000000000000000000000000000000000000000000000000600052601260045260246000fd5b7f4e487b7100000000000000000000000000000000000000000000000000000000600052602260045260246000fd5b7f4e487b7100000000000000000000000000000000000000000000000000000000600052604160045260246000fd5b6000601f19601f8301169050919050565b7f68747470733a2f2f6e6674707265766965772e30786465762e636f6465732f3f60008201527f636f64653d000000000000000000000000000000000000000000000000000000602082015250565b7f4845585f43484152414354455254485245450000000000000000000000000000600082015250565b7f4552433732313a207472616e7366657220746f206e6f6e20455243373231526560008201527f63656976657220696d706c656d656e7465720000000000000000000000000000602082015250565b7f4845585f43484152414354455253495800000000000000000000000000000000600082015250565b7f4552433732313a207472616e736665722066726f6d20696e636f72726563742060008201527f6f776e6572000000000000000000000000000000000000000000000000000000602082015250565b7f4552433732313a20746f6b656e20616c7265616479206d696e74656400000000600082015250565b7f4552433732313a207472616e7366657220746f20746865207a65726f2061646460008201527f7265737300000000000000000000000000000000000000000000000000000000602082015250565b7f4552433732313a20617070726f766520746f2063616c6c657200000000000000600082015250565b7f3c2f746578743e3c2f7376673e00000000000000000000000000000000000000600082015250565b7f4552433732313a2061646472657373207a65726f206973206e6f74206120766160008201527f6c6964206f776e65720000000000000000000000000000000000000000000000602082015250565b7f45524337323155524953746f726167653a2055524920736574206f66206e6f6e60008201527f6578697374656e7420746f6b656e000000000000000000000000000000000000602082015250565b7f4845585f434841524143544552464f5552000000000000000000000000000000600082015250565b7f227d000000000000000000000000000000000000000000000000000000000000600082015250565b7f4552433732313a20617070726f76652063616c6c6572206973206e6f7420746f60008201527f6b656e206f776e6572206e6f7220617070726f76656420666f7220616c6c0000602082015250565b7f4552433732313a206d696e7420746f20746865207a65726f2061646472657373600082015250565b7f222c20226465736372697074696f6e223a20224120686967686c79206163636c60008201527f61696d656420636f6c6c656374696f6e206f6620636f6c6f72732e222c20226960208201527f6d616765223a2022646174613a696d6167652f7376672b786d6c3b626173653660408201527f342c000000000000000000000000000000000000000000000000000000000000606082015250565b7f4845585f4348415241435445524f4e4500000000000000000000000000000000600082015250565b7f7b226e616d65223a202200000000000000000000000000000000000000000000600082015250565b7f2300000000000000000000000000000000000000000000000000000000000000600082015250565b7f27202f3e3c7465787420783d273530252720793d273530252720636c6173733d60008201527f27626173652720646f6d696e616e742d626173656c696e653d276d6964646c6560208201527f2720746578742d616e63686f723d276d6964646c65273e000000000000000000604082015250565b7f4552433732313a20696e76616c696420746f6b656e2049440000000000000000600082015250565b7f4552433732313a20617070726f76616c20746f2063757272656e74206f776e6560008201527f7200000000000000000000000000000000000000000000000000000000000000602082015250565b7f4845585f43484152414354455246495645000000000000000000000000000000600082015250565b7f646174613a6170706c69636174696f6e2f6a736f6e3b6261736536342c000000600082015250565b7f4552433732313a2063616c6c6572206973206e6f7420746f6b656e206f776e6560008201527f72206e6f7220617070726f766564000000000000000000000000000000000000602082015250565b7f4845585f43484152414354455254574f00000000000000000000000000000000600082015250565b613d68816134c1565b8114613d7357600080fd5b50565b613d7f816134d3565b8114613d8a57600080fd5b50565b613d96816134df565b8114613da157600080fd5b50565b613dad8161352b565b8114613db857600080fd5b5056fe416e204e465420772f20494420257320686173206265656e206d696e74656420746f2025734142434445464748494a4b4c4d4e4f505152535455565758595a6162636465666768696a6b6c6d6e6f707172737475767778797a303132333435363738392b2fa2646970667358221220cc6e3fb75f003bb12cb809bc9d995b8abbf7502ff7e48e12cfe4625be259362a64736f6c6343000801003354686973206973206d7920546573742d4e465420636f6e74726163742e20576f6168213c73766720786d6c6e733d27687474703a2f2f7777772e77332e6f72672f323030302f73766727207072657365727665417370656374526174696f3d27784d696e594d696e206d656574272076696577426f783d273020302033353020333530273e3c7374796c653e2e62617365207b2066696c6c3a2077686974653b20666f6e742d66616d696c793a206d6f6e6f73706163653b20666f6e742d73697a653a203970783b207d3c2f7374796c653e3c726563742077696474683d273130302527206865696768743d2731303025272066696c6c3d27",
  "linkReferences": {},
  "deployedLinkReferences": {}
}